:020000040800F2
:10000000D81E00209D010008F31800086B17000897
:10001000F118000879020008F51B00080000000034
:1000200000000000000000000000000005010008C2
:10003000890200080000000049010008F5180008C6
:10004000B7010008B7010008B7010008B7010008B0
:10005000B7010008B7010008B7010008B7010008A0
:10006000B7010008B7010008B7010008B701000890
:10007000B7010008B7010008B7010008B701000880
:10008000B7010008B7010008B7010008B701000870
:10009000B70100087D020008B7010008B701000899
:1000A000B7010008B7010008B7010008B701000850
:1000B00079190008B7010008B7010008B701000866
:1000C000B7010008B7010008B7010008B701000830
:1000D000B7010008B7010008B7010008B701000820
:1000E000B7010008B7010008B7010008DFF810D019
:1000F00000F08AF800480047351C0008AFF3008084
:10010000D81E0020224B19680868B0E8F00F80F371
:100110000988BFF36F8F4FF0000080F311884EF015
:100120000D0E70470000000006480068006880F36C
:10013000088862B661B6BFF34F8FBFF36F8F00DFE1
:1001400000BF00BF08ED00E0EFF30980BFF36F8F41
:100150000F4B1A6820E9F00F106008B54FF05000FF
:1001600080F31188BFF34F8FBFF36F8F02F09CFCB9
:100170004FF0000080F31188BDE808401968086856
:10018000B0E8F00F80F30988BFF36F8F704700BFAE
:100190001C000020EFF305807047000006488047F0
:1001A00006480047FEE7FEE7FEE7FEE7FEE7FEE75C
:1001B000FEE7FEE7FEE7FEE775190008ED00000820
:1001C00040EA01039B0703D009E008C9121F08C0D9
:1001D000042AFAD203E011F8013B00F8013B521E59
:1001E000F9D27047D2B201E000F8012B491EFBD2D0
:1001F00070470022F6E710B513460A460446194632
:10020000FFF7F0FF204610BD064C074D06E0E06802
:1002100040F0010394E8070098471034AC42F6D34D
:10022000FFF768FF94350008B435000870B5044640
:1002300000688168C943C9071CD1816821F00101A8
:10024000816000F02FFC05460FE000BF00F02AFCA3
:10025000401B022809D9A06A40F01000A062E06AA1
:1002600040F00100E062012070BD20688068C0435A
:10027000C007EBD0002070BDFEE70000014800F091
:100280003EB90000C400002070470000F8B500240B
:10029000009490F824202546012A12D0012280F8EB
:1002A00024204A681F23072A0DD20668776B521E46
:1002B00002EB820293409F430B6893401F43776396
:1002C00019E00220F8BD06680D2A0AD2376BD21F4A
:1002D00002EB820293409F430B6893401F433763B6
:1002E00009E0F76A0D3A02EB820293409F430B68E4
:1002F00093401F43F7620A68072306680A2A0AD355
:10030000F7680A3A02EB420293409F438B6893409E
:100310001F43F76008E0376902EB420293409F43B6
:100320008B6893401F4337610A68102A01D0112A55
:1003300020D1124B02689A4217D193681B0219D43C
:10034000936843F4000393600968102912D10C49A3
:100350000C4A0968B1FBF2F101EB8101490000E0B0
:10036000491E00910029FBD104E0816A41F020017F
:100370008162012480F824502046F8BD0024014009
:100380001800002040420F002DE9F0414FF0000717
:1003900004003D467ED0A06A002628B9E66284F8B3
:1003A0002460204600F07EF82046FFF73FFFA16A58
:1003B000C90600D420B1A06A40F01000A06269E034
:1003C000A16A21F4885141F00201A1626268E169E9
:1003D000237B0A4347EA43010A43A1684FF480772D
:1003E000B94209D0012907D05FF0000194F814C088
:1003F000BCF1010F02D00AE03946F7E7F3B1A36A76
:1004000043F02003A362E36A43F00103E36223683D
:10041000D3F804C02CF4694C4CEA010CC3F804C0B6
:1004200021688B68DFF870C003EA0C0313438B600C
:10043000A168B9420BD0012909D00CE0DFF85CC0FB
:10044000A3690CEB43330B4343F40061DFE7218ADC
:100450000D05A5F580152168CB6A23F470032B43A5
:10046000CB62216889680E4B1940914208D1E6623F
:10047000A16A21F0020141F00101A162BDE8F08111
:10048000A06A20F0020040F01000A062E06A40F094
:100490000100E0620120F1E7FDF7E1FF00E0FFFF6E
:1004A000FE0E1FFF00B585B0002100910191029161
:1004B000039100680E49884218D10E48816941F4C1
:1004C00000718161816901F400710491816941F0D9
:1004D000040181618069694600F0040004900120F4
:1004E000009003200190044800F0DEF905B000BD43
:1004F00000240140001002400008014070472DE92F
:10050000F05F0546006800244669D0F804908768CB
:10051000D0F80CB0D0F810A0D0F81880F10748D06F
:10052000F90714D001218160B80703D5284600F0EF
:10053000B5F90CE0780702D54FF4006407E03807FE
:1005400002D54FF4805402E0284600F0A6F9F805E1
:1005500016D529684FF480708860B80503D5284601
:1005600000F09EF90CE0780502D544F4005407E051
:10057000380502D544F4804402E0284600F08FF9A3
:10058000F80316D529684FF480308860B80303D586
:10059000284600F087F90CE0780302D544F40044C3
:1005A00007E0380302D544F4803402E0284600F026
:1005B00078F9300707D55FEACB6004D529681020A9
:1005C00044F40074C86070074FF0080707D55FEA6D
:1005D0000B7004D52868C760284600F059F9B007A9
:1005E00006D52868C068800702D0284600F051F977
:1005F000700607D55FEACA6004D52968102044F464
:1006000080640861B00607D55FEA0A7004D52868DF
:100610000761284600F03EF9F00606D52868006913
:10062000800702D0284600F036F9B00308D55FEA0B
:10063000C96005D5296810204860284600F02CF9CB
:10064000F00307D55FEA097004D52868476028469B
:1006500000F029F9300446D55FEA497040D5F0052D
:1006600004D55FEAC87001D044F00104B00504D598
:100670005FEA887001D544F00204700504D55FEA92
:10068000487001D544F00404300529D518F0700FE6
:1006900026D008F07000402815D006DC102809D0BC
:1006A00020280AD0302816D10AE050280ED0602821
:1006B00011D10EE044F008040DE044F010040AE00B
:1006C00044F0200407E044F0400404E044F08004D7
:1006D00001E044F480742868816921F0700181612F
:1006E000296804204860002C05D0686A20436862AD
:1006F0002846FFF703FFBDE8F09F70B5040003D064
:1007000094F8200010B104E0012070BD204600F0F4
:1007100081F82068016821F00201016000F0C2F94F
:100720000546052604E000F0BDF9401B0A2811D853
:10073000206840688007F6D42068016841F0010114
:10074000016000F0AFF905460BE000F0ABF9401B8B
:100750000A2806D9606A40F40030606284F820609C
:10076000D2E720684068C007EFD0207E01282068CB
:1007700001683DD021F080010160607E0128206881
:10078000016838D021F040010160A07E0128206876
:10079000016833D021F020010160E07E012820684B
:1007A00001682ED041F010010160207F01282068EF
:1007B000016829D021F008010160607F01282068CC
:1007C000016824D021F004010160D4E9020108434A
:1007D000D4E90412114308436168491E08432168A3
:1007E000C86100206062012084F82000002070BDF4
:1007F00041F08001C0E741F04001C5E741F0200130
:10080000CAE721F01001CFE741F00801D4E741F039
:100810000401D9E710B586B0002100910191029141
:1008200003910068174988422AD11748C16941F0ED
:100830000071C161C16901F000710491816941F0E9
:10084000040181618069114C00F0040004904FF4B0
:10085000006000906946204600F026F8A014009041
:1008600002200190032003906946204600F01CF806
:1008700000221146152000F099F9152000F088F9A2
:1008800006B010BD006400400010024000080140A6
:1008900070477047704770477047704770477047A0
:1008A00070477047704770472DE9F84FDFF8B891EF
:1008B000002409F1040A0AF1040B23460F270BF167
:1008C000040EC9E00125A5402A40AA427DD1674E09
:1008D000D1F804C0ACEB0608B44532D014DCBCF14E
:1008E000030F3AD009DCBCF1000F2AD0BCF1010F94
:1008F0001CD0BCF1020F31D11DE0BCF1110F17D09B
:10090000BCF1120F2AD119E0B8F5881F19D006DC06
:10091000B8F5803F15D0B8F5801F1FD111E0B8F5AC
:10092000001F0ED0B8F5041F18D10AE0CB6815E0FF
:10093000CB681B1D12E0CB6808330FE0CB680C338B
:100940000CE08B682BB1012B4FF0080303D04561FD
:1009500004E0042302E0056100E00023FF2A01D83F
:10096000064601E000F104064FEA840501D9A5F12D
:100970002005D6F8008007FA05FC28EA0C0803FADF
:1009800005F548EA0508C6F800804D68ED0062D517
:10099000374DAE6946F00106AE61AD6924F003063D
:1009A00005F001050095334D06EB050CDCF8085009
:1009B000A607360F07FA06F825EA0805DFF8B8801B
:1009C000404503D14FF0000817E044E0DFF8AC8069
:1009D000404502D14FF001080FE0DFF8A480404508
:1009E00002D14FF0020808E0DFF89880404502D1BC
:1009F0004FF0030801E04FF0040808FA06F848EA4F
:100A00000508CCF808804D68D9F80060ED034D4624
:100A100001D5164300E096432E604D68DAF8006079
:100A2000AD03554601D5164300E096432E604D6850
:100A3000DBF80060ED025D4601D5164300E0964309
:100A40002E604D68DEF80060AD02754601D5164394
:100A500000E096432E60641C0D682A46E5407FF452
:100A600031AFBDE8F88F0000000401400000111014
:100A7000001002400000014000080140000C01404D
:100A80000010014000140140C26821EA02030A403C
:100A900043EA0241016170470AB1016170470904EC
:100AA000FBE7000001488068704700000C00002050
:100AB0000248816802781144816070470C00002070
:100AC000074810B5016841F010010160032000F0F3
:100AD0008DF8002000F006F800F03CF8002010BD72
:100AE0000020024000B5014687B000221C2000F023
:100AF0005DF81C2000F04CF81348C16941F0010179
:100B0000C161C06905A900F001000690684600F0C7
:100B10008BF900F0A9F90D494FF08042B0FBF1F1DB
:100B20000B48491E0260416040F2E7320021C0E9F3
:100B30000321816000F0B4FB10B1012007B000BDBB
:100B4000034800F0FBFBF9E70010024040420F00B1
:100B5000BC0100200C4808B5816941F001018161A8
:100B6000816901F001010091C16941F08051C161C9
:100B7000C06900F0805000900448416821F0E061B5
:100B800041F00071416008BD0010024000000140CA
:100B9000002809DB00F01F0201219140400980007C
:100BA00000F1E020C0F8001170470000F0B40E4BD7
:100BB0001B680C46C3F30223C3F10705042D00D9BB
:100BC0000425191D072901D2002300E0DB1E0126A0
:100BD00006FA05F1491E214099409E40761E1640B6
:100BE0003143F0BC01F007B80CED00E0064900F01D
:100BF000070208684FF6FF03184040EA0220034A44
:100C000010430860704700000CED00E00000FA059A
:100C10002DE9F84305460078354CC00754D0E0690B
:100C20000026C00008D4E06940F08050E061E0692F
:100C3000012600F0805000902E480168C90512D4AA
:100C40000168804641F480710160FFF72BFF074681
:100C500005E000BFFFF726FFC01B642823D8D8F8A3
:100C60000000C005F6D5206A10F4407021D0A98894
:100C700001F4407181421CD0206A1F49012220F4F6
:100C800040700A6000220A602062C00711D0FFF79E
:100C900009FF074641F2883808E000BFFFF702FF6E
:100CA000C11B414502D90320BDE8F883206A8007B3
:100CB000F4D5206A696820F44070084320621EB1B0
:100CC000E06920F08050E0612878800705D56068F1
:100CD000A96820F44040084360602878C00605D524
:100CE0006068E96820F48000084360600020DBE76A
:100CF0000010024000700040400442422DE9F047DD
:100D00000F46050061D0434E306800F00700B8423E
:100D100009D2306820F0070038433060306800F0B6
:100D20000700B84251D128683B4C810712D54007D3
:100D300003D5606840F4E06060602878000703D560
:100D4000606840F4605060606068A96820F0F0005E
:100D5000084360602878C00728D06868012810D050
:100D60002168022810D0890700292EDA616821F055
:100D7000030101436160FFF795FE804641F2883927
:100D80000DE021688903EFE78901EDE7FFF78AFEAF
:100D9000A0EB0801494502D90320BDE8F08760684F
:100DA000696800F00C00B0EB810FEFD1306800F003
:100DB0000700B8420BD9306820F007003843306094
:100DC000306800F00700B84201D00120E5E728783C
:100DD000400705D56068E96820F4E060084360607A
:100DE0002878000706D56068296920F4605040EA39
:100DF000C100606000F058F86168084AC1F303114F
:100E0000515CC8400649086006480068FFF76AFE62
:100E10000020C2E7002002400010024058350008C0
:100E200018000020100000200F2202600C4A5368B6
:100E300003F003034360536803F0F00383605368D7
:100E400003F4E063C36052684FF4E06303EAD20244
:100E500002610448006800F0070008607047000065
:100E6000001002400020024004480549006849681B
:100E7000044AC1F30221515CC840704718000020A9
:100E800000100240683500080448054900684968B8
:100E9000044AC1F3C221515CC840704718000020C9
:100EA000001002406835000812A185B00FC98DE816
:100EB0000F0014A0144A006804905168134801F010
:100EC0000C03042B10D0082B0ED1C1F38343C903AC
:100ED0001DF803000AD5516804AAC1F34041515CD2
:100EE0000A4A5043B0FBF1F005B070470849484347
:100EF000FAE7000002030405060708090A0B0C0DB7
:100F00000E0F1010010200000010024000127A00C3
:100F100000093D002DE9F84F040070D02078C04D45
:100F2000C00749D06868C0F38100012807D068680D
:100F3000C0F38100022809D16868C00306D528687B
:100F4000800339D560680028E7D035E06068B0F5E7
:100F5000803F0BD010B1B0F5A02F11D0286820F43D
:100F600080302860286820F4802002E0286840F45F
:100F700080302860606890B1FFF794FD06460AE073
:100F8000286840F480202860F0E700BFFFF78AFD62
:100F9000801B642873D828688003F7D50CE0FFF71E
:100FA00081FD064605E000BFFFF77CFD801B64283D
:100FB000F0D828688003F7D420789A4E80074FF045
:100FC00001094FF0000839D5686810F00C0F07D000
:100FD0006868C0F38100022809D16868C00306D49C
:100FE0002868800714D52069012808D110E02069FD
:100FF000B0B1C6F80090FFF755FD074605E00AE1DD
:10100000FFF750FDC01B0228C4D828688007F7D519
:101010002868616920F0F80040EAC10028600DE00E
:10102000C6F80080FFF73EFD074604E0FFF73AFDF3
:10103000C01B022823D828688007F7D4207800072F
:101040002CD57948A169D9B1C0F80090FFF72AFDE5
:10105000074604E0FFF726FDC01B02280FD8686A88
:101060008007F7D571484FF4FA510068B0FBF1F0F2
:10107000009000BF0098411E0091FAD20EE080E07F
:10108000C0F80080FFF70EFD074604E0FFF70AFDF9
:10109000C01B022875D8686A8007F7D420784007FB
:1010A00060D5E8690027C00008D4E86940F08050A6
:1010B000E861E869012700F0805000905C48016811
:1010C000C90513D40168834641F480710160FFF7BC
:1010D000E9FC824606E000BFFFF7E4FCA0EB0A0053
:1010E00064284ED8DBF80000C005F5D5E06801287B
:1010F0000AD008B1052813D0286A20F00100286220
:10110000286A20F0040002E0286A40F0010028620A
:10111000E06841F2883B98B1FFF7C4FC82460BE0DF
:10112000286A40F004002862EEE700BFFFF7BAFC2F
:10113000A0EB0A0159455AD8286A8007F6D50CE079
:10114000FFF7B0FC824605E0FFF7ACFCA0EB0A011C
:1011500059454CD8286A8007F6D41FB1E86920F0B9
:101160008050E861E06988B36968C1F381010229B0
:1011700044D00228C6F8608004D0FFF793FC0446F0
:1011800038E034E0FFF78EFC074604E0FFF78AFC06
:10119000C01B02282BD828688001F7D4206AB0F53C
:1011A000803F05D16868A16820F40030084368607A
:1011B000D4E908010843696821F4741108436860A0
:1011C000C6F86090FFF76EFC044606E025E000BF1D
:1011D000FFF768FC001B022809D828688001F7D5B2
:1011E0001BE000BFFFF75EFC001B022802D90320B2
:1011F000BDE8F88F28688001F4D40EE00128F7D00C
:101200006868226A00F48031914204D1616A00F476
:101210007010884201D00120EAE70020E8E70000D2
:1012200000100240000042428004424218000020A8
:10123000007000407047704770B590F83C20012A5C
:1012400026D0012480F83C40022280F83D2003682B
:101250005A689D6822F070060A6832435A600D4B46
:1012600002689A4208D0B2F1804F05D00A4B9A42E8
:1012700002D00A4B9A4204D1496825F080031943F1
:10128000916080F83D40002180F83C10084670BD18
:10129000022070BD002C0140000400400008004006
:1012A00010B5040003D094F83D0010B107E0012010
:1012B00010BD002084F83C00204600F01FF80220FA
:1012C00084F83D00211D206800F05CFB012084F8BB
:1012D000460084F83E0084F83F0084F8400084F81B
:1012E000410084F8420084F8430084F8440084F804
:1012F000450084F83D00002010BD000008B50C4AF0
:1013000001680C48914207D1C16941F00201C161F5
:10131000C06900F0020009E0074A914207D1C169A3
:1013200041F00401C161C06900F00400009008BDF3
:1013300000040040001002400008004090F83D10FA
:10134000012901D001207047022180F83D10016879
:10135000CA6842F00102CA6000680B49884208D09E
:10136000B0F1804F05D00949884202D0084988422F
:1013700004D1816801F00701062903D0016841F01A
:101380000101016000207047002C01400004004072
:101390000008004070B5044690F83C00012817D0C2
:1013A000012584F83C50022084F83D0020688268C2
:1013B00022F0770222F47F4282600868502830D001
:1013C0000DDC20284DD005DC98B310283BD148E037
:1013D000022070BD302844D0402834D139E0602844
:1013E00028D0702806D0B0F5805F2CD0B0F5005F13
:1013F00029D10AE0CB68D1E90121206800F0F8FA90
:101400002068816841F0770109E0CB68D1E90121CA
:10141000206800F0EDFA2068816841F48041816025
:1014200011E0CA684968206800F0F4FA5021206889
:1014300007E016E0CA684968206800F0FCFA6021FD
:10144000206800F0DFFA84F83D50002084F83C006A
:1014500070BDCA684968206800F0DCFA4021206845
:10146000EFE7226801461046EBE7704770B5044687
:10147000006801694FF00005C943890715D4C168A8
:10148000C943890711D4E91E016101202077206832
:1014900080698007204602D0FFF7E7FF04E000F0F4
:1014A00098F8204600F096F8257720680169C9432E
:1014B000490717D4C168C943490713D46FF0040121
:1014C0000161022020772068806910F4407F204667
:1014D00002D0FFF7CAFF04E000F07BF8204600F0DE
:1014E00079F8257720680169C943090716D4C168CE
:1014F000C943090712D46FF0080101610420207765
:101500002068C0698007204602D0FFF7AEFF04E0E4
:1015100000F05FF8204600F05DF82577206801694B
:10152000C943C90617D4C168C943C90613D46FF0AB
:1015300010010161082020772068C06910F4407F05
:10154000204602D0FFF791FF04E000F042F8204669
:1015500000F040F8257720680169C943C90708D120
:10156000C168C943C90704D1891E0161204600F042
:1015700032F820680169C943090609D4C168C94322
:10158000090605D46FF0800101612046FFF752FE85
:1015900020680169C943490609D4C168C94349069D
:1015A00005D46FF040010161204600F01BF820686F
:1015B0000169C94389060BD4C168C943890607D4A8
:1015C0006FF0200101612046BDE87040FFF733BE97
:1015D00070BD704770470068B0F1804F01D1FFF7D0
:1015E00067BA7047704770B5040004D094F83900AA
:1015F000002510B106E0012070BD84F83850204667
:1016000000F022F8242084F839002068C16821F411
:101610000051C160204600F05FFA2068016921F4A2
:10162000904101612068416921F02A0141612068EF
:10163000C16841F40051C160E563202084F839009D
:1016400084F83A00002070BD30B585B000240094C5
:1016500001940294039400681449884224D11448E8
:10166000816941F480418161816901F48041049183
:10167000816941F00401816180690E4D00F0040030
:1016800004904FF40070009002200190032003901A
:1016900069462846FFF708F92815CDE90004694690
:1016A00028460294FFF700F905B030BD003801402C
:1016B00000100240000801402DE9F843044690F86C
:1016C00039001F4616460D4620284CD1C5B1BEB183
:1016D00094F83800012846D0012084F838004FF0F3
:1016E0000008C4F83C80212084F83900FFF7DAF9BB
:1016F000A6848146E684A068B0F5805F03D004E04C
:101700000120BDE8F883206928B12E465FF000056E
:1017100084F838800EE00026FAE78021204600F0A9
:1017200037FAA0B9AEB116F8010B21684860E08C19
:10173000401EE084E08C4B464FF0000200970028EA
:10174000EBD14FF04001204600F022FA30B10320E7
:10175000D7E735F8020BC0F30800E6E7202084F84D
:1017600039000020CDE70220CBE7FEE73EB500249C
:101770000D480094019402940A4984600160047346
:101780000475012505614FF460214460C161FEF7D5
:10179000FBFDCDE90045694603480294FEF776FD5E
:1017A0003EBD000000240140940000200B480A497F
:1017B0004FF4403201601021416000218160C0E996
:1017C00003124FF480124261017641768176C17630
:1017D00001774177FEF791BF00640040C40000200C
:1017E00070B586B0002418480094019402940394C4
:1017F000816941F010018161816901F0100104915A
:10180000816941F020018161816901F02001049129
:10181000816941F00401816180690C4E00F004008F
:101820004FF4C0450490002229463046FFF734F9B2
:1018300001200095CDE9010402200390694630465D
:10184000FFF732F806B070BD0010024000100140F2
:1018500010B586B0002411480094019402940394BA
:1018600004940D490594C0E900144FF6FF71C0E9D6
:10187000024104618461FFF713FD4FF48050009032
:1018800069460648FFF786FD049404A903480594B9
:10189000FFF7D2FC06B010BD00040040EC000020B1
:1018A00010B586B00024114800940194029403946A
:1018B00004940D490594C0E900144FF6FF71C0E986
:1018C000024104618461FFF7EBFC4FF4805000900B
:1018D00069460648FFF75EFD049404A90348059491
:1018E000FFF7AAFC06B010BD00080040340100203C
:1018F000FEE7704710B5502080F31188BFF34F8F7B
:10190000BFF36F8F01F05AFC18B104494FF08050BB
:101910000860002080F3118810BD000004ED00E095
:1019200030B593B028216846FEF763FC14210AA85D
:10193000FEF75FFC002401200F940225049000951F
:101940001020119405901094129407946846FFF7A4
:10195000E1FA0F20CDE90A040C940D9400210AA8A5
:101960000E94FFF7CBF90FA80F951194FFF750F9DC
:1019700013B030BD704700000148FFF777BD00008D
:10198000BC010020F0B50268164B174C174D4FF004
:101990008047984205D0B84203D0A04201D0A84267
:1019A00003D122F070064A683243984205D0B8420B
:1019B00003D0A04201D0A84203D122F44074CA68E7
:1019C00022434C6922F08002224302608A68C2628C
:1019D0000A688262984201D109690163012141616B
:1019E000F0BD0000002C0140000400400008004051
:1019F00010B5846842EA032224F47F440A43224358
:101A0000826010BD826822F070020A4342F0070132
:101A10008160704710B5036A046A24F0010404620F
:101A2000846924F0F00444EA021423F00A020A4311
:101A30008461026210BD10B5036A23F010030362D3
:101A40008369046A23F4704343EA023224F0A0035A
:101A500043EA01118261016210BD000086B01422C8
:101A60000EA16846FEF7ACFB114C4FF40055012364
:101A7000142269460F48FFF71FFE0122294620461F
:101A8000FFF70AF8282000F017F90022294620461F
:101A9000FFF702F83C2000F00FF9E8E748656C6CAE
:101AA0006F2066726F6D20746872656164310D0A13
:101AB000001001407C010020064D4FF480444FF49B
:101AC0007A7621462846FEF7DFFF304600F0F4F82C
:101AD000F7E700000010014070B504460068016996
:101AE000E26821F44051114301612169A068084373
:101AF000616908432168CA6841F20C639A43024352
:101B0000CA6020684169A26921F4407111434161B2
:101B10001E492068884202D1FFF7B6F901E0FFF7BD
:101B2000A3F900EBC00101EB0012606864218000A2
:101B3000B2FBF0F3B3FBF1F36FF018067343B2FBA3
:101B4000F0F5B2FBF0F605EB8305322303EB051548
:101B5000B5FBF1F5B6FBF1F605F0F00505EB061562
:101B6000B2FBF0F6B2FBF0F0B0FBF1F06FF0180250
:101B7000504306EB800003EB0010B0FBF1F021684E
:101B800000F00F002844886070BD0000003801405C
:101B90002DE9F041984617460E460446069D1DE085
:101BA000681C1BD02DB1FEF77DFFA0EB0800A842FA
:101BB00014D92068C16821F4D071C16020684169DE
:101BC00021F001014161202084F8390084F83A00B5
:101BD000002084F838000320BDE8F0812068006808
:101BE00036EA000004D00020B842D9D00020F3E744
:101BF0000120F9E7FEE70907090E002804DB00F1E0
:101C0000E02080F80014704700F00F0000F1E020A1
:101C100080F8141D704702E008C8121F08C1002A8E
:101C2000FAD170477047002001E001C1121F002A5D
:101C3000FBD17047FEF744FFFFF772FEFFF7D0FDC0
:101C4000FFF794FDFFF7B2FDFFF702FEFFF728FE56
:101C5000144813490C2201604FF4E1314160002126
:101C60008160C160C0E904128161C161FFF7BBFC02
:101C700000F03CF80C4800F075F80C4C0A4A0021C2
:101C8000A060483A0A4800F0ADF8074A2060243ABC
:101C90000021084800F0A6F8606000F043F8FEE775
:101CA000003801407C010020483500080000002079
:101CB0005D1A0008B91A000810B5EFF3058149B99B
:101CC000EFF3108131B908490968022905D1EFF312
:101CD000118111B16FF0050403E0002408B100F098
:101CE0002FFE204610BD00006C000020EFF30580A1
:101CF00058B9EFF3108040B909490868022801D0AB
:101D000030B109E0EFF3118030B16FF0050070479A
:101D100001200860002070474FF0FF30704700003E
:101D20006C00002010B5EFF3058060B9EFF3108070
:101D300048B90B490868022802D0012806D00BE0F8
:101D4000EFF3118040B16FF0050010BD0220086074
:101D500000F05EFE002010BD4FF0FF3010BD00000F
:101D60006C00002070B505464FF00004EFF30580CD
:101D7000A0BBEFF3108088BB19480068022802D18D
:101D8000EFF3118050BB0DB1686800E00020C1077F
:101D900001D0012600E0002600071FD46DB1D5E96F
:101DA000021021B1502819D31EB1042002E020B145
:101DB00014E0012000F009FF05E00EB1042000E06E
:101DC000012000F0F7FE040008D00DB1296800E002
:101DD000002100F07FFD0EB144F00104204670BDEB
:101DE0006C000020F0B585B04FEA01034FF000040D
:101DF000EFF305810394A1BBEFF3108189BB214967
:101E00000968022902D1EFF3118151BB48B3802642
:101E100018218DF8104004AD42B3176807B13D4654
:101E200097691FB139467F1E382F02D21779FF07F5
:101E300002D0002005B0F0BD576907B1BE08D2F846
:101E400008C0BCF1000F0DD0D4685C2C18D3126907
:101E50003AB137B18DE806103246294601F06FF9E4
:101E600003900DE0D7685FB912694AB903AACDE9BA
:101E70000012B2B2294601F035F9012800D00394CE
:101E80000398D7E76C0000202DE9F041134C0F4672
:101E9000054666692068001D00F022FC681C07D119
:101EA00037B12168BDE8F0410D48091D00F068BC5C
:101EB00020683544B5424560216805D2A068BDE878
:101EC000F041091D00F044BC6068091D00F040FCB1
:101ED000206B854200D22563BDE8F0811C00002004
:101EE000F40600202DE9F041054600F055FC2D4C8C
:101EF0002069401C206120682B4F10B1E06930B38D
:101F00002BE025602069012827D1002606EB8600FA
:101F100007EB800000F00EFC761C382EF6D3234829
:101F200000F008FC2148143000F004FC1F48283061
:101F300000F000FC1D483C3000F0FCFB1B4850301A
:101F400000F0F8FB194860601430A06005E02068DC
:101F5000E96AC06A884200D82560E06A401CE062F5
:101F60006864E86AA169884200D9A06100EB80003A
:101F700007EB8000291D00F003FC00F02DFCE06958
:101F800000280CD02068E96AC06A884207D2084954
:101F90004FF080500860BFF34F8FBFF36F8FBDE8E5
:101FA000F08100001C00002044020020A406002054
:101FB00004ED00E038B500F0EFFB104CA068C8B9A4
:101FC0000F4800F0B7FB0E48143000F0B3FB0C488C
:101FD0002060143060600A4B00202833009003F129
:101FE000500210210A2000F021FEA06010B105A1CE
:101FF00000F070FCBDE8384000F0EEBB5800002057
:1020000008070020546D72510000000030B4026CCB
:102010000B46002A0BD0C1681144C1604468A1423C
:1020200001D30168C16030BC1846FEF7C9B830BCA6
:1020300070472DE9F041856B174604460026026C77
:1020400082B1C7B1E068FEF7BBF8E168206C091AFD
:10205000E1602268914202D26168081AE060022FB2
:1020600016D017E02068A8B9606801F00BF90646A1
:10207000002060600EE0A068FEF7A2F8216CA06866
:102080000844A0606168884204D32068A06001E031
:1020900005B16D1E6D1CA5633046BDE8F08110B51D
:1020A000044690F8590058B101280CD002280FD0EE
:1020B000502080F31188BFF34F8FBFF36F8FFEE77F
:1020C000206B00F09DFB2046BDE8104000F098BB5F
:1020D00010BD000010484FF44061420706D0C01DFB
:1020E0000D4920F00700411AC1F540610B4A002359
:1020F0000144C2E900030839103A21F007011160D8
:102100004B600B600B1AC0E9001393604FF0004066
:102110005360D06070470000D80E0020800000207F
:10212000144E154CA6F29C474FF08058DFF84C90A7
:1021300012E000BF00F030FBF068C568281D00F019
:10214000CFFA2069401E2061E068401EE06000F088
:1021500043FB2846FFF7A3FFE0680028EAD1386870
:102160000128F9D9C9F80080BFF34F8FBFF36F8FF3
:10217000F2E70000E00600201C00002004ED00E073
:10218000002807D00021416001600B460A46C1606B
:1021900000F0C4BD7047000070B51D46049C51B1ED
:1021A000C4F80020C4E90F010121204600F072FDAF
:1021B00084F84C5070BD2460F4E72DE9F0470E46DA
:1021C000DDE909841746824691009946089DA522BB
:1021D000206BFEF707F86FF00301206B01EB87011E
:1021E000084420F00707780707D0502080F31188B3
:1021F000BFF34F8FBFF36F8FFEE72218315C82F879
:102200003410315C11B1401C1028F6D3002684F83C
:102210004360382D00D33725E562C4E91356201DED
:1022200000F093FA04F1180000F08FFA2461C5F170
:1022300038006462A061666584F858604A46514679
:10224000384600F03BFA2060B8F1000F01D0C8F822
:102250000040BDE8F087000030B5114900E01146AC
:102260000A688242FBD34B685C18844203D1406801
:1022700018444860084643681C18944209D1084C29
:10228000103C2468A24209D052681A4442600A688D
:1022900012680260814200D0086030BD0460F9E736
:1022A0008000002070B5002441600B4D0061914218
:1022B00006D8D11A8269914206D2011D686807E0EA
:1022C0009A4203D2994201D3012403E0011D2868F8
:1022D00000F03EFA204670BD5800002010B50446BC
:1022E00000F05AFAA06B28B15FF0000400F074FA15
:1022F000204610BD0124F9E730B589B0304D55E0D6
:102300000498002806DADDE90601059A904704984A
:1023100000284BDB069C606910B1201D00F0E0F93D
:1023200002A800F0B9F8024604980A283ED2DFE875
:1023300000F00505053D263705053D260598A169F0
:10234000034601442046FFF7ADFF00B3616A204613
:102350008847E069012829D1002000900598A169EB
:10236000002342181946204601F096F878B950200B
:1023700080F31188BFF34F8FBFF36F8FFEE705988F
:10238000A06128B1811813462046FFF78BFF0DE0AE
:10239000502080F31188BFF34F8FBFF36F8FFEE79C
:1023A00094F82C0010B9204600F02AFA002204A963
:1023B000A86800F0C1FD0028A2D109B030BD00001E
:1023C000580000202DE9FC410F46054600F064FB53
:1023D00001A800F061F80446019818B100F0CAFFA6
:1023E000BDE8FC81224EAFB170680068A8B3002739
:1023F000291B3A46B06800F081FA00F0BBFF0028C4
:10240000EED11C494FF080500860BFF34F8FBFF3EF
:102410006F8FE5E7A542EBD800F0ACFF30682746A8
:10242000C068C468201D00F05BF9E069012810D184
:10243000A0692B4641193A462046FFF733FF40B1C9
:1024400000200346014600902A46204601F024F869
:1024500020B1616A20468847C2E707E0502080F338
:102460001188BFF34F8FBFF36F8FFEE70127BFE7E0
:102470005800002004ED00E006484168096829B1D1
:102480004168C968C9684968016370474FF0FF3106
:10249000FAE700001C00002070B5054600F088FE39
:1024A000064E04463069844203D200F009F8012048
:1024B00000E0002028602046346170BD58000020F4
:1024C000F8B5194D1FE0C068C4680668201D00F00B
:1024D00007F9616A20468847E069012813D1A0699D
:1024E0003044B04206D924616060211D286800F0A4
:1024F0002FF908E0002003460146009032462046AE
:1025000000F0CAFF38B1286801680029DBD169688A
:10251000C5E90010F8BD502080F31188BFF34F8F3C
:10252000BFF36F8FFEE700005800002008484068A6
:10253000401C4FF0500080F3118804D0BFF34F8F40
:10254000BFF36F8FFEE7BFF34F8FBFF36F8FFEE7D1
:1025500088000020074C2068016841B1C068002154
:10256000D0F80000FFF72EFFFFF7C6FEF3E70121CA
:102570000020F7E7580000202DE9F041044600F064
:102580000BF994F9455004F1240609E0606A48B15A
:10259000304600F0B7FE08B100F000FA6D1E6DB2D3
:1025A000002DF3DC4FF0FF3684F8456000F014F99D
:1025B00000F0F2F894F9445004F1100709E02069A2
:1025C00048B1384600F09EFE08B100F0E7F96D1EF4
:1025D0006DB2002DF3DC84F84460BDE8F04100F0FA
:1025E000FBB800002DE9F0410546002700F054FA41
:1025F000314E306808B9FFF76DFDF06805424BD1E8
:10260000C5B3083568070ED005F00700C0F1080013
:102610000544680707D0502080F31188BFF34F8F1F
:10262000BFF36F8FFEE72DB37068854234D8224820
:10263000103001460C6801E020460C466168A94252
:1026400002D221680029F7D131688C4224D0076872
:102650002168016060680837411B10290FD9601993
:10266000420708D0502080F31188BFF34F8FBFF38B
:102670006F8FFEE710E041606560FFF7EDFD616878
:102680007068401A7060B268904200D2B060F06822
:1026900001430020C4E9000100F06CFE780707D078
:1026A000502080F31188BFF34F8FBFF36F8FFEE789
:1026B0003846BDE8F08100007000002010B5031F0F
:1026C0004FF080741C601B1F21F001011960191F5D
:1026D000024B0B60143940380A6010BD2D250008EC
:1026E000D0E9013201699A60D0E901235A604A6851
:1026F000824201D182684A60002202610868401E5D
:102700000860086870470000034B036003F15C0039
:10271000086080201060704720080020044B036090
:1027200003F15C0008604FF4807010607047000097
:102730007C0A002000F108014FF0FF32C0E90112CD
:10274000C160016100210160704700210161704793
:1027500030B50B685A1C02D000F1080202E0026991
:1027600004E02246546825689D42FAD953684B60BC
:1027700099608A60516008610168491C016030BD40
:1027800042684A6093688B60936859609160086101
:102790000168491C01607047502080F31188BFF325
:1027A0004F8FBFF36F8F0A494868401C486001286B
:1027B0000CD10848006810F0FF0F07D0502080F3BC
:1027C0001188BFF34F8FBFF36F8FFEE77047000094
:1027D0008800002004ED00E00849486828B1401E48
:1027E000486001D180F311887047502080F3118830
:1027F000BFF34F8FBFF36F8FFEE70000880000200C
:1028000070B5002827D0144DA0F108046168E8686D
:10281000014207D1502080F31188BFF34F8FBFF3DF
:102820006F8FFEE722683AB1502080F31188BFF322
:102830004F8FBFF36F8FFEE78143616000F02CF98B
:1028400060686968084468602046FFF705FDBDE8D8
:10285000704000F08FBD70BD700000204FF0E02090
:1028600000210161816105494FF47A720968B1FB69
:10287000F2F1491E416107210161704718000020F3
:1028800010B5FDF787FC114910280ED300F1E020A8
:1028900090F8F0030A78904207D2502080F3118814
:1028A000BFF34F8FBFF36F8FFEE709480068896859
:1028B00000F4E060884207D9502080F31188BFF30C
:1028C0004F8FBFF36F8FFEE710BD00008800002020
:1028D0000CED00E010B5084B002200BF53F8324069
:1028E0001CB1521C082AF9D310BD43F8321003EB77
:1028F000C201486010BD00000402002070B51546FA
:102900000E460446FFF748FF94F944100020491C86
:1029100001D184F8440094F94510491C01D184F890
:102920004500FFF759FFA06B28B92A46314604F14C
:10293000240000F051F82046BDE87040FFF71CBEAF
:1029400010B5020014D00F48806B38B1502080F3CE
:102950001188BFF34F8FBFF36F8FFEE700F09CF835
:1029600000211046FFF790FA00F004FD002807D17F
:1029700005494FF080500860BFF34F8FBFF36F8F52
:1029800010BD00001C00002004ED00E002498A6A2E
:1029900002604969416070471C0000200149012024
:1029A000486270471C00002010B50C4650B1094920
:1029B00009681831FFF7CCFE2046BDE81040012120
:1029C000FFF762BA502080F31188BFF34F8FBFF337
:1029D0006F8FFEE71C00002070B514460D4668B1ED
:1029E0000A4909681831FFF7CBFE0CB14FF0FF35EB
:1029F00021462846BDE87040FFF746BA502080F3D4
:102A00001188BFF34F8FBFF36F8FFEE71C000020CC
:102A100030B587B00024039405AA04A903A8049440
:102A2000FFF772FEDDE903010094CDE901100023F8
:102A300015A11748059A00F082FB164D002868631F
:102A40001FD000F0F9FC012809D0401C19D15020FA
:102A500080F31188BFF34F8FBFF36F8FFEE75020D5
:102A600080F31188BFF34F8FBFF36F8F4FF0FF30AC
:102A700028630120E8616C6107B0BDE8304000F0D8
:102A800045B807B030BD000049444C450000000087
:102A9000212100081C0000200248816B491C816331
:102AA000704700001C000020164810B5816B11B162
:102AB0000121416210BD002141628169124A01E099
:102AC000B9B1491E01EB810352F82330002BF7D036
:102AD00001EB810302EB830202F1080453685B6897
:102AE0005360A34201D15B685360DA680260816180
:102AF00010BD502080F31188BFF34F8FBFF36F8F4D
:102B0000FEE700001C000020440200201CB52649FE
:102B100008780190FF20087008788DF800009DF873
:102B200000009DF8002000F0F000904207D05020F7
:102B300080F31188BFF34F8FBFF36F8FFEE79DF8CF
:102B400000001A4B00F0500018700720986005E054
:102B50009DF8002052008DF80020401E9DF80020B6
:102B60001206F5D49860032807D0502080F311880E
:102B7000BFF34F8FBFF36F8FFEE74FF44070986045
:102B8000019808700A48016841F470010160016809
:102B900041F070410160FFF761FE00205860FDF7D1
:102BA000C3FA00201CBD000000E400E08800002003
:102BB00020ED00E010B502460021012000F012F8DF
:102BC0000446FFF7DDFA204610BD38B50B4600225B
:102BD00000901146012000F029F80446FFF7D0FAD2
:102BE000204638BDF8B517460E46050014D0DEB1B4
:102BF00005FB06F05030FFF7F5FC04000AD000207A
:102C000084F8460004F150023B46314628460094C1
:102C1000FFF7C2FA2046F8BD502080F31188BFF3B9
:102C20004F8FBFF36F8FFEE70020E3E738B5049DB9
:102C300018B153B1CAB181B120E0502080F311889E
:102C4000BFF34F8FBFF36F8FFEE7502080F31188E3
:102C5000BFF34F8FBFF36F8FFEE7502080F31188D3
:102C6000BFF34F8FBFF36F8FFEE739B1502080F372
:102C70001188BFF34F8FBFF36F8FFEE750241C46C0
:102C8000012384F846302B460094FFF785FA20464E
:102C900038BD000070B50D46040025D0FFF77CFD5F
:102CA000D4E90F20216802FB001161600021A163BB
:102CB0002168A1600A46D4E90F01401E00FB0121F2
:102CC000E16021464FF0FF3001F8440F487004F1F5
:102CD00010008DB1FFF72EFD04F12400FFF72AFD4F
:102CE000FFF77AFD012070BD502080F31188BFF3FB
:102CF0004F8FBFF36F8FFEE721690029F0D000F0FE
:102D000001FB0028ECD004494FF080500860BFF36D
:102D10004F8FBFF36F8FE3E704ED00E02DE9FF472E
:102D200082B01D468A464FF00008040003D0BAF175
:102D3000000F08D011E0502080F31188BFF34F8FAF
:102D4000BFF36F8FFEE7206C38B1502080F31188FD
:102D5000BFF34F8FBFF36F8FFEE7022D0AD1E06BF9
:102D6000012807D0502080F31188BFF34F8FBFF3A5
:102D70006F8FFEE700F00EFA3F4F4FF000094FF063
:102D8000805648B9049838B1502080F31188BFF3B9
:102D90004F8FBFF36F8FFEE7FFF7FEFCA06BE16B79
:102DA000884207D3022D05D00498D0B1B8F1000FA6
:102DB0001AD01EE02A4651462046FFF73AF9616ACA
:102DC00019B104F1240000F09DFA20B13E60BFF378
:102DD0004F8FBFF36F8FFFF7FFFC012006B0BDE8F8
:102DE000F087FFF7F9FC22E06846FFF7CFFD4FF0D0
:102DF0000108FFF7F1FCFFF74FFEFFF7CDFC94F958
:102E00004400401C01D184F8449094F94500401CD2
:102E100001D184F84590FFF7DFFC04A9684600F073
:102E200027F930B12046FFF7A7FB00F0A3FA0020F6
:102E3000D4E7FFF7B1FCA06BE16B884213D1FFF739
:102E4000CBFC04F110000499FFF7AEFD2046FFF71C
:102E500093FB00F08FFA00289ED13E60BFF34F8FA6
:102E6000BFF36F8F98E7FFF7B7FC2046FFF784FBAF
:102E700000F080FA90E7000004ED00E02DE9F04753
:102E80001F4690468946040003D0B9F1000F08D0D0
:102E900011E0502080F31188BFF34F8FBFF36F8F85
:102EA000FEE7206C38B1502080F31188BFF34F8FBC
:102EB000BFF36F8FFEE7022F0AD1E06B012807D026
:102EC000502080F31188BFF34F8FBFF36F8FFEE761
:102ED000FFF7D6FC5020EFF3118680F31188BFF383
:102EE0004F8FBFF36F8FA06BE16B884206D3022F29
:102EF00004D0002086F31188BDE8F08794F945508E
:102F00003A4649462046FFF794F8681C04D06D1CE9
:102F100084F845500120EDE7606A0028FAD004F1FA
:102F2000240000F0EFF90028F4D0B8F1000FF1D040
:102F30000121C8F80010EDE72DE9F747002683B01E
:102F40008A46040003D0BAF1000F08D011E05020E7
:102F500080F31188BFF34F8FBFF36F8FFEE7206CB4
:102F600038B1502080F31188BFF34F8FBFF36F8FBC
:102F7000FEE700F00FF9DFF8F4804FF000094FF0A2
:102F8000805748B9059838B1502080F31188BFF3B5
:102F90004F8FBFF36F8FFEE7FFF7FEFBA56BC5B149
:102FA00051462046FFF732F86D1EA563206950B1E7
:102FB00004F1100000F0A6F928B1C8F80070BFF3C2
:102FC0004F8FBFF36F8FFFF707FC012006B0BDE8FE
:102FD000F087059808B11EB106E0FFF7FDFB27E07A
:102FE0006846FFF7D3FC0126FFF7F6FBFFF754FD19
:102FF000FFF7D2FB94F94400401C01D184F84490BF
:1030000094F94500401C01D184F84590FFF7E4FB9A
:1030100005A9684600F02CF8002820460AD0FFF7E2
:10302000ABFA00F0A7F92046FFF758F90028B3D013
:103030000020CBE7FFF752F990B104F12400059985
:10304000FFF7B2FC2046FFF797FA00F093F900284B
:10305000A2D1C8F80070BFF34F8FBFF36F8F9BE70B
:103060002046FFF789FA00F085F995E704ED00E0C6
:103070002DE9F0410C46050011D0C4B1FFF78CFBDF
:10308000174B5A696E682068911B471C17D02F6830
:103090009B6A9F4219D0964217D8012410E0502015
:1030A00080F31188BFF34F8FBFF36F8FFEE750207F
:1030B00080F31188BFF34F8FBFF36F8FFEE70024BB
:1030C000FFF78AFB2046BDE8F081884205D9401A07
:1030D00020602846FFF75AFCF1E700202060DCE77B
:1030E0001C0000202DE9FF5F8346DDE90E8799462D
:1030F00016468A469000FFF775FA05001CD05C2042
:10310000FFF770FA040014D00020256384F85900FA
:10311000CDE90240CDE900874B463246514658463C
:10312000FFF74BF82046FEF7DDFE012004B0BDE8B6
:10313000F09F2846FFF764FB4FF0FF30F6E7F0B54D
:1031400085B0DDE90B640A9DA6B1DCB15C27009770
:103150002663022684F85960002604AFCDE90246B2
:10316000CDE90057FFF729F82046FEF7BBFE04988B
:1031700005B0F0BD502080F31188BFF34F8FBFF32F
:103180006F8FFEE7502080F31188BFF34F8FBFF39E
:103190006F8FFEE70548C16919B1806B18B1002037
:1031A0007047012070470220704700001C0000207B
:1031B00001484069704700001C0000202DE9F041E3
:1031C0002E4C0027A06B40B1206A401C2062606A30
:1031D00000B101273846BDE8F0816669761C66615A
:1031E00013D16068006838B1502080F31188BFF3B4
:1031F0004F8FBFF36F8FFEE76068A1686160A060CA
:10320000A06A401CA062FFF737F9206BDFF87080DE
:10321000864209D36068006880B16068C068C5688C
:10322000686886420DD220632068C06A00EB800186
:1032300058F821000128CAD90127C8E74FF0FF300C
:10324000F1E7281DFFF74CFAA86A18B105F118003C
:10325000FFF746FAE86AA169884200D9A06100EB4D
:10326000800108EB8100291DFFF78AFAE86A2168CE
:10327000C96A8842CED30127CCE700001C00002099
:103280004402002070B504004FF0000133D01B4D04
:103290002868844207D0502080F31188BFF34F8FF5
:1032A000BFF36F8FFEE7206D38B1401E2065E36CE1
:1032B000E26A9A421FD040B11DE0502080F311888D
:1032C000BFF34F8FBFF36F8FFEE7201DFFF708FAA4
:1032D000E06CE062C0F13800A061E06AA969884250
:1032E00000D9A861064900EB800001EB8000211D98
:1032F000FFF746FA0121084670BD00001C000020BF
:103300004402002070B5C068C46854B104F11800CC
:103310000646FFF7E5F9144DA86B50B13146134846
:1033200015E0502080F31188BFF34F8FBFF36F8FEC
:10333000FEE7201DFFF7D4F9E06AA969884200D9A9
:10334000A8610B4900EB800001EB8000211DFFF715
:1033500017FAE06A2968C96A884202D901206862BE
:1033600070BD002070BD00001C000020CC060020B5
:10337000440200202DE9F0472C4D00242746A86B7D
:1033800038B1FFF709FAA86B401EA863A86B40B1DB
:1033900046E0502080F31188BFF34F8FBFF36F8F4B
:1033A000FEE72969224E0120D1B3A6F59169804636
:1033B0003068E0B1F068C46804F11800FFF790F9D4
:1033C000201DFFF78DF9E06AA969884200D9A8613C
:1033D00000EB800109EB8100211DFFF7D1F9E06AC4
:1033E0002968C96A8842E3D3C5F82480E0E70CB1B4
:1033F000FFF742F82C6A4CB14FEA0806FFF7DEFEF1
:1034000000B16E62641EF9D100202862686A38B18A
:103410000849012738070860BFF34F8FBFF36F8F4C
:10342000FFF7DAF93846BDE8F08700001C000020FD
:10343000CC06002004ED00E010B586B0FEF7BAFD22
:10344000114CA068B8B100200390049005AA04A90B
:1034500003A8FFF763F9DDE9032102208DE80700E7
:1034600000230AA10B48059AFFF769FEE06010B13E
:1034700006B0012010BD502080F31188BFF34F8F9C
:10348000BFF36F8FFEE7000058000020546D7220DC
:1034900053766300552500082DE9FF411E4613466B
:1034A00002000A9D4FF0000016D0144CA768002FB0
:1034B0000FD0CDE900130292062917DAFFF76AFE52
:1034C00002284FF000030FD000226946A068FFF7E2
:1034D00025FC04B0BDE8F081502080F31188BFF3D3
:1034E0004F8FBFF36F8FFEE72A46EEE70023324689
:1034F00069463846FFF7C2FCEBE7000058000020A1
:1035000088350008000000000000000000000000F6
:103510000000000000020000180000000000000091
:1035200000000000703500080000000000000000EE
:103530000000000000000000000200000800000081
:1035400000000000000000007C35000800000000C2
:10355000000000000000000000000000000000006B
:103560000102030406070809000000000102030429
:103570006D795461736B30320000000075617274B4
:103580004D5554455800000064656661756C74546F
:1035900061736B00B4350008000000209400000047
:1035A000161C00084836000894000020441E000045
:1035B000261C0008000000000000000000000000C1
:1035C0000100000010000000000000000024F400D2
:1035D00000000000000000000000000000000000EB
:1035E00000000000000000000000000000000000DB
:1035F00000000000000000000000000000000000CB
:1036000000000000000000000000000000000000BA
:1036100000000000000000000000000000000000AA
:10362000000000000000000000000000000000009A
:10363000000000000000000000000000000000008A
:08364000AAAAAAAA00000000DA
:04000005080000ED02
:00000001FF
